:1000000075900075A000D2B0D2B1D2B2D2B3D2B442
:10001000D2B5D2B6D2B720B002114A20B1021163D4
:1000200020B202117C20B302118E20B40211A02054
:10003000B50211A920B602118520B70211972080C0
:100040000211BB20810211B280CC7409F59011DD40
:100050007408F59011DD740CF59011DD7404F590C1
:1000600011DD227404F59011DD740CF59011DD742E
:1000700008F59011DD7409F59011DD22D2A011C4AC
:10008000C2A011D622D2A011CDC2A011D622D2A1D7
:1000900011C4C2A111D622D2A111CDC2A111D62262
:1000A000D2A211C4C2A211D622D2A311C4C2A311DA
:1000B000D622D2A311CDC2A311D622D2A211CDC273
:1000C000A211D6227A6479FAD9FEDAFA227AC879AC
:1000D000FAD9FEDAFA227B1211C4DBFC227A3279D9
:0600E000FFD9FEDAFA224E
:00000001FF
